:1000000099C00000C4C00000C2C00000C0C0000011
:10001000BEC00000BCC00000BAC00000B8C00000F4
:10002000B6C000000C94CB12AEC70000B0C00000F8
:10003000AEC00000ACC00000AAC00000A8C0000014
:10004000A6C00000A4C00000A2C00000A0C0000024
:100050009EC000009CC000009AC0000098C0000034
:1000600096C0000094C0000092C0000090C0000044
:100070008EC000008CC000008AC0000088C0000054
:1000800086C0000084C0000082C0000080C0000064
:100090007EC000007CC00000120100020000004091
:1000A000EB031C20001001020001090222000101E3
:1000B00000A032090400000103000200092111011F
:1000C0000001223400070581030800020A035400DE
:1000D000450041004D0026035300550050004500E7
:1000E000520020004200410053004900430021001B
:1000F00054004F0055004E0047004500040309041A
:1001000005010902A1010901A1000509190129033D
:100110001500250175019503810275059501810181
:1001200005010930093109381581257F75089503C6
:100130008106C0C011241FBECFEFD0E2DEBFCDBF0D
:1001400080E88983298180E090E00FB6F8942093BD
:100150006100809361000FBE81E011E0A0E0B1E09A
:10016000E2E8F6E200E00BBF02C007900D92A03477
:10017000B107D9F71BBE11E0A0E4B1E001C01D92A8
:10018000A137B107E1F70E9410130C943F1338CF49
:10019000DF93CF930F92CDB7DEB7EFE5F0E080812C
:1001A00080788983F894E4E5F0E087EF808388E144
:1001B0000FB6F89480936000109260000FBE8981A2
:1001C000882309F078940F90CF91DF910895DF9301
:1001D000CF930F92CDB7DEB7AAE7B0E0EAE7F0E041
:1001E000808180688C93ACE7B0E0ECE7F0E0808140
:1001F00080628C93ABE7B0E0EBE7F0E080818F7733
:100200008C93ACE7B0E0ECE7F0E08081806C8C93FD
:10021000AAE7B0E0EAE7F0E08081876F8C93AAE775
:10022000B0E0EAE7F0E08081887F8C93AAE7B0E055
:10023000EAE7F0E0808186608C93EEE7F0E0808171
:10024000EEE7F0E08FEF80830F90CF91DF9108957C
:10025000DF93CF93CDB7DEB771D6B9DF0E9480119F
:10026000CF91DF910895DF93CF93CDB7DEB70DD057
:1002700082D60E94F011FCCFDF93CF93CDB7DEB7CB
:10028000E7DFF1DFCF91DF910895DF93CF93CDB713
:10029000DEB7CF91DF910895DF93CF93CDB7DEB76F
:1002A000E3E5F0E01082A3E5B0E0E3E5F0E0808173
:1002B00085608C938895CF91DF910895DF93CF93DC
:1002C00000D00F92CDB7DEB789836A83ABEEB0E082
:1002D000EBEEF0E0808181608C93ECEEF0E08981C0
:1002E0008083ADEEB0E0EDEEF0E08081982F92706B
:1002F0008A81892B8C93ADEEB0E0EDEEF0E0808149
:1003000082608C93EEEEF0E080811B82882314F4EF
:1003100081E08B838B810F900F900F90CF91DF91B5
:100320000895DF93CF930F92CDB7DEB7A8EDB0E07D
:10033000E8EDF0E080818F7B8C93E9EDF0E0808147
:10034000882F90E0827090700097A1F0E9EEF0E0C5
:100350001082EBEEF0E08081882F90E08170907049
:10036000009741F4E9EEF0E0108282E060E3A6DF5E
:10037000898301C0198289810F90CF91DF910895FF
:10038000DF93CF93CDB7DEB77894A8EDB0E0E8ED7A
:10039000F0E080818F768C93A8EDB0E0E8EDF0E09E
:1003A000808180698C93A8EDB0E0E8EDF0E0808179
:1003B0008F7B8C937894CF91DF910895DF93CF93C7
:1003C000CDB7DEB7E9E4F0E08EE08083E9E4F0E069
:1003D0008081882F90E0817090700097B9F3A8ED2C
:1003E000B0E0E8EDF0E080818F7D8C939ADFA0EEA5
:1003F000B0E0E0EEF0E080818E7F8C93A2EEB0E082
:10040000E2EEF0E0808181608C93A2EEB0E0E2EE5B
:10041000F0E0808188608C93CF91DF910895DF9325
:10042000CF930F92CDB7DEB7E9EDF0E08081882F52
:1004300090E0817090708823A9F08091400188231A
:1004400089F481E080934001109242010E94801162
:100450008091440190914501826090934501809381
:100460004401ACDFE9EDF0E08081882F90E08170FD
:100470009070882311F0198202C081E089838981FC
:100480008823C1F0809140018130A1F41092400195
:10049000109266018091440190914501846090938F
:1004A000450180934401A8EDB0E0E8EDF0E08081E3
:1004B00080628C938091440190914501807091708D
:1004C000009791F080914401909145019E7F909317
:1004D000450180934401EAEEF0E081E08083EAEE9A
:1004E000F0E0108210926601E9EEF0E01082E8EE92
:1004F000F0E08081882F90E088709070009709F07C
:1005000004D00F90CF91DF910895DF93CF9300D067
:1005100000D0CDB7DEB7A8EEB0E0E8EEF0E0808125
:100520008B7F8C93E1EFF0E080818A83E1EFF0E054
:10053000808189838981282F30E03C832B838B81C4
:100540009C818630910509F43DC02B813C81273088
:100550003105ECF48B819C818130910509F44CC00C
:100560002B813C812230310534F48B819C810097B2
:1005700009F44CC05DC02B813C812330310509F466
:1005800040C08B819C818530910551F151C02B81F8
:100590003C812930310549F18B819C818A3091055C
:1005A00034F42B813C8128303105A9F041C08B8186
:1005B0009C818A30910579F12B813C812B3031056A
:1005C00089F136C08A81803809F032C0AED08823E4
:1005D00009F044C02DC08A81803851F5BDD13EC09C
:1005E0008A81882329F541D039C08A81882301F581
:1005F00072D0882399F51CC08A8117D3882371F59E
:1006000017C08A8165D2882349F512C08A81DCD15E
:10061000882321F50DC08A81813851F4B3D3882312
:10062000E9F406C08A81813019F40CD48823B1F42E
:100630008A816981F3D5882389F4ABEEB0E0EBEED3
:10064000F0E0808180628C93A8EEB0E0E8EEF0E00C
:100650008081877F8C9381E080935F010F900F9062
:100660000F900F90CF91DF910895DF93CF930F926A
:10067000CDB7DEB7E1EFF0E080818983A3EEB0E093
:10068000E3EEF0E08081982F907889818F77892B35
:100690008C93A8EEB0E0E8EEF0E08081877F8C9349
:1006A000A8EEB0E0E8EEF0E080818E7F8C93E8EE7B
:1006B000F0E08081882F90E0817090700097B9F30E
:1006C000A3EEB0E0E3EEF0E0808180688C930F90C1
:1006D000CF91DF910895DF93CF9300D0CDB7DEB7F0
:1006E000E1EFF0E0808189838981823010F01A8205
:1006F00016C0A8EEB0E0E8EEF0E08081877F8C9332
:10070000898180936601A8EEB0E0E8EEF0E0808198
:100710008E7F8C938091660104D681E08A838A81E2
:100720000F900F90CF91DF910895DF93CF93CDB7C6
:10073000DEB72F970FB6F894DEBF0FBECDBF198678
:10074000E1EFF0E080818F83E1EFF0E08081888746
:100750008885282F30E03F872E878E859F858130C2
:10076000910531F02E853F852230310559F014C0B6
:1007700082E18093670188E990E09093690180931A
:10078000680111C082E2809367018AEA90E0909349
:1007900069018093680107C088856F810DD6882321
:1007A00011F41D86CFC0E1EFF0E080818E83E1EF90
:1007B000F0E080818E83DE011A96E1EFF0E0808127
:1007C0008C93CE010A96DC011196E1EFF0E0808176
:1007D0008C93A8EEB0E0E8EEF0E08081877F8C9308
:1007E00080916701282F30E08A859B85281739077B
:1007F00068F480916701882F90E08F739070009764
:1008000019F481E0898706C0198604C08A859B8512
:1008100080936701A8EEB0E0E8EEF0E080818F7E83
:100820008C931C824CC0E8EEF0E08081882F90E031
:1008300080719070009749F4E8EEF0E08081882F95
:1008400090E081709070009771F31D8224C01C8627
:100850008D81803411F431E03C878D818F5F8D83F1
:100860008C858823E1F4A1EFB0E08091680190913C
:1008700069019B838A830196909369018093680143
:10088000EA81FB818491898389818C9380916701BE
:10089000815080936701809167018823C1F6E8EE5B
:1008A000F0E08081882F90E0807190700097A9F42B
:1008B000A8EEB0E0E8EEF0E080818E7F8C9380912E
:1008C0006701882351F0E8EEF0E08081882F90E006
:1008D00080719070009709F4AFCF89858130C9F499
:1008E000E8EEF0E08081882F90E0807190700097B2
:1008F00081F4E8EEF0E08081882F90E081709070C4
:100900000097B9F3A8EEB0E0E8EEF0E080818E7FCA
:100910008C93E8EEF0E08081882F90E080719070F9
:100920000097B9F3A8EEB0E0E8EEF0E080818F7EAA
:100930008C93A8EEB0E0E8EEF0E080818B7F8C93A2
:1009400091E09D878D852F960FB6F894DEBF0FBE80
:10095000CDBFCF91DF910895DF93CF93CDB7DEB7B1
:10096000A8EEB0E0E8EEF0E08081877F8C93E1EFC5
:10097000F0E0809166018083A8EEB0E0E8EEF0E060
:1009800080818E7F8C93A8EEB0E0E8EEF0E080816D
:100990008F778C93E8EEF0E08081882F90E0847070
:1009A00090700097B9F3A8EEB0E0E8EEF0E0808137
:1009B0008B7F8C93A8EEB0E0E8EEF0E080818F773B
:1009C0008C93CF91DF910895DF93CF9300D000D027
:1009D00000D0CDB7DEB78B83E1EFF0E08081898373
:1009E000E1EFF0E080818983E1EFF0E080818A83AC
:1009F0008B81282F30E03E832D838D819E8181382D
:100A00009105B9F02D813E8122383105E9F08D81C3
:100A10009E818038910569F5A8EEB0E0E8EEF0E03F
:100A20008081877F8C93E1EFF0E0809143018083A8
:100A300022C0A8EEB0E0E8EEF0E08081877F8C93E2
:100A4000E1EFF0E0108217C0A8EEB0E0E8EEF0E0D1
:100A50008081877F8C938A818F778A83A1EFB0E032
:100A60008A81882F90E0FC01E15AFE4F80818C93AF
:100A700002C01C8223C0E1EFF0E01082A8EEB0E0DB
:100A8000E8EEF0E080818E7F8C93E8EEF0E08081EC
:100A9000882F90E0847090700097B9F3A8EEB0E0D2
:100AA000E8EEF0E080818B7F8C93A8EEB0E0E8EE7A
:100AB000F0E080818F778C9391E09C838C812696E7
:100AC0000FB6F894DEBF0FBECDBFCF91DF91089572
:100AD000DF93CF93CDB7DEB727970FB6F894DEBF7D
:100AE0000FBECDBF8C838C81282F30E03F832E83B7
:100AF0008E819F818130910591F12E813F8122303D
:100B0000310579F18E819F81009709F080C0E1EF76
:100B1000F0E080818B838B81882F90E0813091057C
:100B2000E1F48B81813011F01D8275C08091430109
:100B300082608093430181E080934201A8EEB0E09F
:100B4000E8EEF0E08081877F8C93A8EEB0E0E8EEDD
:100B5000F0E080818E7F8C935CC01D825CC01D8222
:100B60005AC0E1EFF0E080818B83E1EFF0E080811B
:100B700089838B81882311F01D824DC0E1EFF0E065
:100B800080818F778A838A81882371F4ABEEB0E00D
:100B9000EBEEF0E0808180628C93A8EEB0E0E8EEAE
:100BA000F0E08081877F8C93E9EEF0E08A8180839A
:100BB000EBEEF0E08081882F90E0817090700097DC
:100BC00029F4E9EEF0E010821D8225C0ABEEB0E022
:100BD000EBEEF0E0808180628C93E9EEF0E0108231
:100BE0008A81882F90E0FC01E15AFE4F81E08083EA
:100BF000A8EEB0E0E8EEF0E08081877F8C93A8EE6D
:100C0000B0E0E8EEF0E080818E7F8C9302C01D8220
:100C100002C091E09D838D8127960FB6F894DEBFC8
:100C20000FBECDBFCF91DF910895DF93CF93CDB7A6
:100C3000DEB727970FB6F894DEBF0FBECDBF8C830B
:100C40008C81282F30E03F832E838E819F818130DD
:100C5000910549F12E813F812230310531F18E819C
:100C60009F81009709F080C0E1EFF0E080818B83E5
:100C70008B81813011F01D827BC0809143018D7F7B
:100C80008093430110924201A8EEB0E0E8EEF0E05C
:100C90008081877F8C93A8EEB0E0E8EEF0E0808161
:100CA0008E7F8C9363C01D8263C0E1EFF0E0808192
:100CB0008B83E1EFF0E0808189838B81882311F0C1
:100CC0001D8256C0E1EFF0E080818F778A83E9EEE4
:100CD000F0E08A818083EBEEF0E08081882F90E065
:100CE00081709070009729F4E9EEF0E010821D8287
:100CF0003FC08A818823F9F0ABEEB0E0EBEEF0E084
:100D0000808180618C93EAEEF0E08A81282F30E0C8
:100D100081E090E0022E02C0880F991F0A94E2F74A
:100D20008083EAEEF0E01082ABEEB0E0EBEEF0E0B4
:100D3000808188608C93E9EEF0E010828A81882FB0
:100D400090E0FC01E15AFE4F1082A8EEB0E0E8EE20
:100D5000F0E08081877F8C93A8EEB0E0E8EEF0E0D1
:100D600080818E7F8C9302C01D8202C091E09D83A2
:100D70008D8127960FB6F894DEBF0FBECDBFCF9101
:100D8000DF9108950F931F93DF93CF9300D000D08E
:100D90000F92CDB7DEB7E1EFF0E080818983E1EF1C
:100DA000F0E080818A83DE011396E1EFF0E080813C
:100DB0008C93CE010396DC011196E1EFF0E0808187
:100DC0008C938A81882319F48A81882311F01D82EB
:100DD0002EC0A8EEB0E0E8EEF0E08081877F8C9333
:100DE00001EF10E08B819C81AED2F8018083A8EEE8
:100DF000B0E0E8EEF0E080818E7F8C93E8EEF0E0EA
:100E00008081882F90E0847090700097B9F3A8EEED
:100E1000B0E0E8EEF0E080818B7F8C93A8EEB0E04C
:100E2000E8EEF0E080818F778C93F1E0FD838D8197
:100E30000F900F900F900F900F90CF91DF911F9117
:100E40000F910895DF93CF9300D000D00F92CDB7CC
:100E5000DEB7E1EFF0E080818983E1EFF0E08081AF
:100E60008A83DE011396E1EFF0E080818C93CE015E
:100E70000396DC011196E1EFF0E080818C938A818A
:100E8000882311F01D8220C0A8EEB0E0E8EEF0E06B
:100E90008081877F8C938B819C81698161D2E9EE0F
:100EA000F0E01082A8EEB0E0E8EEF0E080818E7F06
:100EB0008C93E8EEF0E08081882F90E08170907054
:100EC0000097B9F381E08D838D810F900F900F9083
:100ED0000F900F90CF91DF910895DF93CF93CDB70F
:100EE000DEB7E9E4F0E08081882F90E081709070B7
:100EF000009769F4E9E4F0E08EE08083E9E4F0E053
:100F00008081882F90E0817090700097B9F3A8EDF0
:100F1000B0E0E8EDF0E080818F7D8C93809142011C
:100F2000813049F4A0EEB0E0E0EEF0E08081826034
:100F30008C9310924201CF91DF910895DF93CF936C
:100F4000CDB7DEB7A7EDB0E0E7EDF0E080818160DE
:100F50008C93A7EDB0E0E7EDF0E080818F7B8C9380
:100F6000A7EDB0E0E7EDF0E0808180688C9308DACF
:100F7000CF91DF910895DF93CF93CDB7DEB74FDAEE
:100F8000CF91DF9108951F920F920FB60F920090AC
:100F90005B000F9211242F933F934F935F936F93B6
:100FA0007F938F939F93AF93BF93EF93FF93DF93C1
:100FB000CF93CDB7DEB7E1EEF0E08081882F90E0EF
:100FC00084709070009779F0E2EEF0E08081882FD5
:100FD00090E084709070009731F0E1EEF0E08BEFDC
:100FE00080830E948E12E1EEF0E08081882F90E0F5
:100FF00081709070882309F463C0E2EEF0E0808194
:10100000882F90E081709070882309F459C08091F6
:101010004201813051F580916601882331F1A2EEC1
:10102000B0E0E2EEF0E080818E7F8C93E1EEF0E0C4
:101030008FEE8083A2EEB0E0E2EEF0E0808180618E
:101040008C93A9E4B0E0E9E4F0E080818D7F8C939B
:10105000E9E4F0E01082A8EDB0E0E8EDF0E0808196
:1010600080628C930E949A122BC0E1EEF0E08FEE2A
:101070008083809144019091450180629093450165
:1010800080934401E1EEF0E08EEF8083A2EEB0E0C9
:10109000E2EEF0E0808180618C93A8EDB0E0E8EDB5
:1010A000F0E0808180628C93A9E4B0E0E9E4F0E0B4
:1010B00080818D7F8C93E9E4F0E010820E949A1287
:1010C000E1EEF0E08081882F90E0807190700097D1
:1010D00009F441C0E2EEF0E08081882F90E0807159
:1010E00090700097C1F1E9E4F0E08081882F90E0F2
:1010F00081709070009769F4E9E4F0E08EE08083FD
:10110000E9E4F0E08081882F90E081709070009792
:10111000B9F3A8EDB0E0E8EDF0E080818F7D8C932D
:10112000E1EEF0E08FEE8083A2EEB0E0E2EEF0E0E0
:1011300080818F7E8C9380914401909145018064E1
:101140009093450180934401A2EEB0E0E2EEF0E01E
:10115000808181608C93E1EEF0E08081882F90E0C7
:1011600080729070009721F1E2EEF0E08081882F8C
:1011700090E0807290700097D9F0A2EEB0E0E2EEBD
:10118000F0E080818F7E8C93E1EEF0E08FED808344
:10119000A2EEB0E0E2EEF0E080818F7D8C93809152
:1011A00044019091450180689093450180934401EA
:1011B000E1EEF0E08081882F90E0887090700097D9
:1011C000B9F0E2EEF0E08081882F90E088709070B6
:1011D000009771F0E1EEF0E087EF8083A2D8809174
:1011E00044019091450191609093450180934401A1
:1011F000CF91DF91FF91EF91BF91AF919F918F912F
:101200007F916F915F914F913F912F910F9000923D
:101210005B000F900FBE0F901F901895DF93CF9338
:10122000CDB7DEB72D970FB6F894DEBF0FBECDBF9A
:101230008B836C83E1EFF0E080818983E1EFF0E064
:1012400080818A838B818138F1F48C81882F90E0B2
:1012500086309105C1F48A81282F30E03D872C87A4
:101260008C859D858132910531F02C853D8522321A
:10127000310529F008C099D231E03B8748C0ECD055
:1012800081E08B8744C08B81813249F58C81282F86
:1012900030E03A87298789859A858930910531F030
:1012A00029853A852A303105A1F019C08A81282F75
:1012B00030E038872F838F8198858130910579F0D0
:1012C0002F8138852230310551F4ABD131E03B8795
:1012D0001EC089816A81D8D181E08B8718C08B813B
:1012E000813AA1F48C81282F30E03E832D838D81BB
:1012F0009E818130910551F02D813E812230310552
:1013000029F48981F8D131E03B8701C01B868B85A8
:101310002D960FB6F894DEBF0FBECDBFCF91DF91F3
:101320000895DF93CF930F92CDB7DEB78983E9EEAF
:10133000F0E081E0808381EC60E00E945E010F902C
:10134000CF91DF910895DF93CF9300D0CDB7DEB773
:101350009A83898380E00F900F90CF91DF91089559
:10136000DF93CF9300D00F92CDB7DEB79A838983F6
:101370006B8389819A810097C9F4E9EEF0E081E0FE
:101380008083ABEEB0E0EBEEF0E0808180618C9387
:10139000EAEEF0E082E08083EAEEF0E01082ABEE6D
:1013A000B0E0EBEEF0E0808188608C930F900F90BE
:1013B0000F90CF91DF910895DF93CF9300D000D0AD
:1013C0000F92CDB7DEB789836A838981882F90E039
:1013D00083309105B9F58A81282F30E03D832C8335
:1013E0008C819D8181309105A9F02C813D81223035
:1013F0003105E1F08C819D81009721F584E0809397
:1014000067018CEF90E0909369018093680191E00F
:101410009B8319C08AE0809367018CEC90E09093E5
:1014200069018093680121E02B830DC086E28093DF
:10143000670186ED90E0909369018093680131E047
:101440003B8301C01B828B810F900F900F900F90F8
:101450000F90CF91DF910895DF93CF93CDB7DEB793
:101460002A970FB6F894DEBF0FBECDBF1C82DE01F7
:101470001896E1EFF0E080818C93CE010896DC01B4
:101480001196E1EFF0E080818C9384E38093670113
:1014900080E091E09093690180936801DE011696E7
:1014A000E1EFF0E080818C93CE010696DC0111968D
:1014B000E1EFF0E080818C93A8EEB0E0E8EEF0E0A0
:1014C0008081877F8C9380916701282F30E08E8107
:1014D0009F812817390768F480916701882F90E071
:1014E0008F739070009719F481E08C8341C01C8247
:1014F0003FC08E819F81809367013AC0E8EEF0E0A3
:101500008081882F90E0817090700097B9F31D82E0
:1015100024C01A868D81803411F481E08A878D8100
:101520008F5F8D838A858823E1F4A1EFB0E08091FD
:101530006801909169019B838A8301969093690168
:1015400080936801EA81FB818491898389818C93EE
:1015500080916701815080936701809167018823A2
:10156000C1F6A8EEB0E0E8EEF0E080818E7F8C93CB
:1015700080916701882351F0E8EEF0E08081882FA8
:1015800090E084709070009709F4B8CFE8EEF0E036
:101590008081882F90E084709070009779F0A8EE99
:1015A000B0E0E8EEF0E080818B7F8C93A8EEB0E0B5
:1015B000E8EEF0E080818F778C932AC08C818130B7
:1015C00081F4E8EEF0E08081882F90E081709070E7
:1015D0000097B9F3A8EEB0E0E8EEF0E080818E7FEE
:1015E0008C93E8EEF0E08081882F90E0847090701A
:1015F0000097B9F3A8EEB0E0E8EEF0E080818B7FD1
:101600008C93A8EEB0E0E8EEF0E080818F778C93C9
:101610002A960FB6F894DEBF0FBECDBFCF91DF91F3
:101620000895DF93CF93CDB7DEB7A8EEB0E0E8EE34
:10163000F0E08081877F8C93A8EEB0E0E8EEF0E0E8
:1016400080818E7F8C93E8EEF0E08081882F90E09F
:10165000847090700097B9F3A8EEB0E0E8EEF0E087
:1016600080818B7F8C93A8EEB0E0E8EEF0E0808183
:101670008F778C93A8EEB0E0E8EEF0E080818E7F6B
:101680008C93CF91DF910895DF93CF9300D000D05A
:10169000CDB7DEB78B836C83DE011196E1EFF0E00E
:1016A00080818C93CE010196DC011196E1EFF0E090
:1016B00080818C93A8EEB0E0E8EEF0E08081877F37
:1016C0008C938C8180934601A8EEB0E0E8EEF0E0C8
:1016D00080818E7F8C93E8EEF0E08081882F90E00F
:1016E000817090700097B9F30F900F900F900F904A
:1016F000CF91DF910895DF93CF9300D000D00F9268
:10170000CDB7DEB78D83DE011396E1EFF0E0808187
:101710008C93CE010396DC011196E1EFF0E080811D
:101720008C93DE011196E1EFF0E080818C93CE0185
:101730000196DC011196E1EFF0E080818C93A8EE38
:10174000B0E0E8EEF0E08081877F8C9389819A8118
:10175000009761F0E1EFF0E0809146018083A8EE10
:10176000B0E0E8EEF0E080818E7F8C93E8EEF0E070
:101770008081882F90E0847090700097B9F3A8EE74
:10178000B0E0E8EEF0E080818B7F8C93A8EEB0E0D3
:10179000E8EEF0E080818F778C930F900F900F90A0
:1017A0000F900F90CF91DF910895DF93CF93CDB736
:1017B000DEB72A970FB6F894DEBF0FBECDBF1C82EE
:1017C000DE011896E1EFF0E080818C93CE0108965F
:1017D000DC011196E1EFF0E080818C9389E0809349
:1017E00067018CEB90E09093690180936801DE01C2
:1017F0001696E1EFF0E080818C93CE010696DC0135
:101800001196E1EFF0E080818C93A8EEB0E0E8EE75
:10181000F0E08081877F8C9380916701282F30E0F2
:101820008E819F812817390768F480916701882F7E
:1018300090E08F739070009719F481E08C8341C021
:101840001C823FC08E819F81809367013AC0E8EE81
:10185000F0E08081882F90E0817090700097B9F35C
:101860001D8224C01A868D81803411F481E08A871C
:101870008D818F5F8D838A858823E1F4A1EFB0E0AD
:1018800080916801909169019B838A83019690936E
:10189000690180936801EA81FB8184918983898150
:1018A0008C938091670181508093670180916701DB
:1018B0008823C1F6A8EEB0E0E8EEF0E080818E7FEC
:1018C0008C9380916701882351F0E8EEF0E08081ED
:1018D000882F90E084709070009709F4B8CFE8EEFC
:1018E000F0E08081882F90E084709070009779F00C
:1018F000A8EEB0E0E8EEF0E080818B7F8C93A8EE5C
:10190000B0E0E8EEF0E080818F778C932AC08C8184
:10191000813081F4E8EEF0E08081882F90E08170E2
:1019200090700097B9F3A8EEB0E0E8EEF0E08081A7
:101930008E7F8C93E8EEF0E08081882F90E08470B9
:1019400090700097B9F3A8EEB0E0E8EEF0E0808187
:101950008B7F8C93A8EEB0E0E8EEF0E080818F778B
:101960008C932A960FB6F894DEBF0FBECDBFCF91F1
:10197000DF910895DF93CF9300D0CDB7DEB71092FB
:101980006D0110926E0110926F011092700100D3E0
:1019900080914701282F30E03A83298389819A81F9
:1019A0008230910539F129813A812330310554F48F
:1019B00089819A810097B1F029813A8121303105DE
:1019C000A9F028C089819A8184309105D9F02981B4
:1019D0003A812430310594F089819A8185309105CE
:1019E000A9F018C028D080934C0118C077D08093FC
:1019F0004C0114C0B4D080934C0110C0DCD0809353
:101A00004C010CC030D180934C0108C088D1809328
:101A10004C0104C01092470110924C01F3D1809305
:101A20004C0110D280934C0180914C010F900F908B
:101A3000CF91DF910895DF93CF930F92CDB7DEB7AB
:101A400010925D0110925E0160D380935D018091E0
:101A50005D013DD2882391F080914B01882321F0D4
:101A600010924B0110925D011092490110924801B1
:101A700084E08093470181E089832BC080915D01E0
:101A800001D2882381F080915D01E0D31092490159
:101A90001092480181E080934A0181E080934701E0
:101AA00081E0898316C080914801909149018B3F64
:101AB000910528F0109249011092480190D280912E
:101AC0004801909149010196909349018093480102
:101AD000198289810F90CF91DF910895DF93CF9381
:101AE0000F92CDB7DEB780914801909149010196E0
:101AF000909349018093480180915D01BCD2882375
:101B000089F480914801909149018B30910550F002
:101B1000109249011092480183E08093470181E0CF
:101B2000898318C080914801909149018B3F9105AC
:101B300060F0109249011092480110924A0182E02F
:101B40008093470181E0898305C080915D017ED348
:101B500081E0898389810F90CF91DF910895DF9390
:101B6000CF930F92CDB7DEB7D0D280935D01809135
:101B70005D0188D18823B9F080915D01E2D2809324
:101B80005E0180915D0112D380915D015FD38091F0
:101B90005E015CD380915D0133D380915E0130D3CF
:101BA00081E0898303C010924701198289810F90D7
:101BB000CF91DF910895DF93CF9300D0CDB7DEB7FB
:101BC00080914B01882351F0A0D281D11A828823C1
:101BD00011F421E02A838A8180934B0196D277D138
:101BE000882331F492D2982F80915D01981759F48F
:101BF00010925D01109249011092480184E0809397
:101C0000470119822AC081D23DD1882369F07DD253
:101C100080935D01109249011092480181E0809308
:101C2000470121E0298319C0809148019091490121
:101C300023E0893E920750F4809148019091490138
:101C40000196909349018093480102C010924A0185
:101C500080915D01FBD281E0898389810F900F9093
:101C6000CF91DF910895DF93CF930F92CDB7DEB779
:101C700080915D01882F90E00097E1F48091480108
:101C80009091490101969093490180934801809178
:101C90004801909149018536910550F036D217D10F
:101CA000882331F4109249011092480110924701A3
:101CB000198230C02AD20BD1882311F580914801B6
:101CC000909149018536910578F010924B018091F1
:101CD0005D01873021F481E080934B0105C085E0F0
:101CE00080934701198216C080915D01AFD2109296
:101CF0004901109248011092470181E089830AC08E
:101D000080914801909149010196909349018093F7
:101D10004801198289810F90CF91DF910895DF9357
:101D2000CF9300D00F92CDB7DEB7EFD180935D0196
:101D300080914801909149010196909349018093C7
:101D4000480180914801909149018333910530F415
:101D500080915D01BCD0882309F44CC010924901E8
:101D60001092480180915D01282F30E03B832A8347
:101D70008A819B8185309105F1F02A813B81263053
:101D8000310534F48A819B818130910561F032C044
:101D90002A813B8126303105B1F08A819B818730D1
:101DA0009105E9F027C0809170018F5F80937001E9
:101DB00091E0998320C080917001815080937001DF
:101DC00021E0298318C010925D0110924901109200
:101DD000480184E08093470131E039830CC01092C0
:101DE0005D01109249011092480184E080934701FF
:101DF000198201C0198289810F900F900F90CF91A5
:101E0000DF910895DF93CF930F92CDB7DEB7809126
:101E10004A01882381F0809148019091490125E091
:101E200030E0B90118D4009731F010926E01109291
:101E30006F01198202C081E0898389810F90CF915F
:101E4000DF910895DF93CF9300D0CDB7DEB78091B7
:101E50004B01882311F087E0F9D180914C01882350
:101E600021F480914B01882329F081E090E09A834E
:101E7000898302C01A82198289810F900F90CF91B5
:101E8000DF910895DF93CF9300D0CDB7DEB789837C
:101E90008981853019F481E08A8313C08981823079
:101EA00019F481E08A830DC08981843019F481E0BE
:101EB0008A8307C08981813019F481E08A8301C057
:101EC0001A828A810F900F90CF91DF910895DF934E
:101ED000CF9300D0CDB7DEB789838981873019F4DD
:101EE00081E08A8307C08981863019F481E08A8382
:101EF00001C01A828A810F900F90CF91DF910895CF
:101F0000DF93CF930F92CDB7DEB78983AAE7B0E016
:101F1000EAE7F0E0808180718C93AAE7B0E0EAE71D
:101F2000F0E0808180688C93AAE7B0E0EAE7F0E017
:101F30008081887F8C93AAE7B0E0EAE7F0E08081B7
:101F400086608C93ACE7B0E0ECE7F0E08081807FC6
:101F50008C93ACE7B0E0ECE7F0E090818981892BCD
:101F60008C93AAE7B0E0EAE7F0E0808180648C938C
:101F7000EAE7F0E08081882F90E080719070009710
:101F8000B9F3E9E7F0E080810F90CF91DF910895F8
:101F90000F931F93DF93CF930F92CDB7DEB781E0FE
:101FA000898314C089816EDF882321F489818FDFC2
:101FB000882349F08981082F10E08981A1DFF80189
:101FC000EB5AFE4F808389818F5F898389818830B6
:101FD00048F30F90CF91DF911F910F910895DF93F8
:101FE000CF930F92CDB7DEB781E0898311C089818D
:101FF000282F30E08981882F90E0FC01EB5AFE4FBA
:102000008081F901E35BFE4F808389818F5F898343
:102010008981883060F30F90CF91DF910895DF932D
:10202000CF9300D00F92CDB7DEB789836A838981C1
:10203000882F90E0FC01EB5AFE4F8081482F50E042
:102040008981882F90E0FC01E35BFE4F8081282F7F
:1020500030E08A81882F90E0820F931F1B828417C3
:10206000950714F481E08B838B810F900F900F9074
:10207000CF91DF910895DF93CF9300D0CDB7DEB736
:102080008983898124DF882329F0898165E1C7DF7D
:102090008A830AC08981F6DE882329F0898164E079
:1020A000BEDF8A8301C01A828A810F900F90CF9180
:1020B000DF910895DF93CF9300D000D0CDB7DEB786
:1020C00089836A838981882F90E0FC01EB5AFE4F57
:1020D00020818A81882F90E0FC01EB5AFE4F80819D
:1020E000821748F48981C7DF882329F081E090E0D6
:1020F0009C838B8302C01C821B828B810F900F906C
:102100000F900F90CF91DF910895DF93CF9300D080
:10211000CDB7DEB71A8281E089830AC089816A81DE
:10212000C9DF882311F089818A8389818F5F898340
:102130008981883098F38A810F900F90CF91DF9139
:102140000895DF93CF9300D00F92CDB7DEB78B8386
:102150001A828B818F5F89831FC08B81482F50E04B
:102160008981282F30E0CA01880F991F880F991F95
:10217000880F991F820F931FFC01E050FF4F808151
:10218000882339F089816A8195DF882311F089815C
:102190008A8389818F5F898389818830F0F28A817F
:1021A0000F900F900F90CF91DF910895DF93CF9311
:1021B00000D0CDB7DEB78A8381E0898319C08981D9
:1021C0005ADF882391F08A815DDE882321F089819E
:1021D0007EDE882341F48A817ADE882331F089818A
:1021E00051DE882311F0FBDE06C089818F5F898371
:1021F0008981883020F30F900F90CF91DF9108955F
:10220000DF93CF930F92CDB7DEB78983898160E5E5
:1022100006DF882311F0898119D0898160E8FFDE0B
:10222000882311F0898112D0898160EBF8DE882340
:1022300011F089810BD089816FEFF1DE882311F0D5
:10224000898104D00F90CF91DF910895DF93CF93D0
:1022500000D00F92CDB7DEB789838981282F30E077
:102260003B832A838A819B818430910561F12A8195
:102270003B81253031055CF48A819B818130910559
:10228000B1F02A813B8122303105B9F033C08A8117
:102290009B818630910519F12A813B8126303105D9
:1022A000C4F08A819B8187309105F9F023C0809129
:1022B0006F01815080936F011DC080916E0181502C
:1022C00080936E0117C080916E018F5F80936E01C5
:1022D00011C080916F018F5F80936F010BC080915F
:1022E0006D01826080936D0105C080916D018160F8
:1022F00080936D010F900F900F90CF91DF91089513
:102300000F931F93DF93CF930F92CDB7DEB7109249
:102310006A01A2EEB0E0E2EEF0E0808184608C938E
:10232000A4E2B0E0E4E2F0E080818F718C93A5E25A
:10233000B0E0E5E2F0E08081806E8C93ADE2B0E049
:10234000EDE2F0E080818F7C8C93AEE2B0E0EEE2D3
:10235000F0E0808180638C93ADE2B0E0EDE2F0E0EC
:1023600080818B7F8C93AEE2B0E0EEE2F0E0808182
:1023700084608C93AAE2B0E0EAE2F0E08081806FB2
:102380008C93ABE2B0E0EBE2F0E0808180628C9372
:10239000ABE2B0E0EBE2F0E080818F7E8C931092B4
:1023A0006C0181E080936B01198281E089830FC009
:1023B0008981833049F08981082F10E08981A0DD6F
:1023C000F801E35BFE4F808389818F5F8983898178
:1023D000883070F30F90CF91DF911F910F91089586
:1023E000DF93CF9300D0CDB7DEB7E9EDF0E0808189
:1023F000882F90E081709070882311F0198202C0BC
:1024000081E089838981882359F0E3E5F0E0108237
:10241000A3E5B0E0E3E5F0E0808185608C938895EA
:1024200080916601882309F474C080916A01833029
:1024300008F46FC010926A0180916C01882331F416
:1024400099DA882319F081E080936C0180916C0106
:10245000882329F480916B01882309F45AC0E9EE9E
:10246000F0E081E08083E8EEF0E08081882F90E06A
:1024700080729070009709F44CC0ABE2B0E0EBE2E0
:10248000F0E0808180618C9380916C01882371F0F1
:1024900010926C0180916D018A838A81882311F0EA
:1024A00081E08A838A8180936B010AC010926D015A
:1024B00010926E0110926F011092700110926B01D8
:1024C000E1EFF0E080916D018083E1EFF0E0809139
:1024D0006E018083E1EFF0E080916F018083E1EF96
:1024E000F0E0809170018083A8EEB0E0E8EEF0E0CB
:1024F00080818E7F8C93A8EEB0E0E8EEF0E08081E2
:102500008F778C93ABE2B0E0EBE2F0E080818F7EDE
:102510008C930F900F90CF91DF910895DF93CF931D
:10252000CDB7DEB780916A018F5F80936A01CF914A
:10253000DF910895DF93CF93CDB7DEB7809142014D
:102540008130A9F4ABE6B0E0EBE6F0E08081806E8C
:102550008C93ABE3B0E0EBE3F0E0808181608C939F
:10256000A8E6B0E0E8E6F0E0808181608C93ABE221
:10257000B0E0EBE2F0E080818F7D8C9378940E9454
:102580004C01ABE2B0E0EBE2F0E0808180628C9342
:10259000CF91DF9108951F920F920FB60F92009086
:1025A0005B000F9211242F933F934F935F936F9390
:1025B0007F938F939F93AF93BF93EF93FF93DF939B
:1025C000CF93CDB7DEB7A8E6B0E0E8E6F0E08081D3
:1025D0008E7F8C93ABE3B0E0EBE3F0E08081816031
:1025E0008C93ABE6B0E0EBE6F0E080818F718C93EA
:1025F0000E946D07CF91DF91FF91EF91BF91AF9155
:102600009F918F917F916F915F914F913F912F910A
:102610000F9000925B000F900FBE0F901F901895C7
:10262000DF93CF930F92CDB7DEB70E94C80080E84A
:102630008983298180E090E00FB6F89420936100AF
:10264000809361000FBE0E943C0180E090E00F90FB
:10265000CF91DF910895AA1BBB1B51E107C0AA1FB0
:10266000BB1FA617B70710F0A61BB70B881F991F33
:102670005A95A9F780959095BC01CD010895F894DD
:02268000FFCF8A
:102682000000000000000000000001000100000046
:102692000001000000010000000000000000000036
:1026A2000000010000010000000000000000000026
:1026B2000000000000010001000000000001010014
:00000001FF
